:020000041000EA
:1000000000200008EB0000100D0000004D01001062
:1000100000000000000000000000000000000000E0
:100020000000000000000000000000004901001076
:10003000000000000000000049010010490100100C
:100040004901001049010010490100104901001048
:100050004901001049010010490100104901001038
:100060004901001049010010490100104901001028
:100070004901001049010010490100104901001018
:1000800010B5064C2378002B07D1054B002B02D06E
:10009000044800E000BF0123237010BDB003000836
:1000A000000000000C150010044B10B5002B03D00D
:1000B0000349044800E000BF10BDC0460000000036
:1000C000B40300080C1500100230800803D0013082
:1000D0000238FCD1C046C0467047EFF3108072B6BC
:1000E000704780F3108870477047FFF7FDFF72B6C6
:1000F0000F4C104DAC4209DA21686268A368043BDA
:1001000002DBC858D050FAE70C34F3E70A490B4A2F
:100110000020521A02DD043A8850FCDC08480949E4
:100120000860BFF34F8F00F0F9FE00F0A9FEFEE774
:100130001815001030150010B0030008C80500089D
:100140000000000808ED00E0FEE7FEE700B504202F
:100150007146084202D0EFF3098002E0EFF3088015
:10016000043000F08DFCFEE7014B18607047C0467C
:10017000C4050008044B1B681A00BA3212881B6AB7
:100180005043C0187047C046C40500081D4B984234
:100190000FD010D840282FD005D8002830D01028F4
:1001A00028D019481EE0802828D080235B00984280
:1001B000F7D1144816E0154B984214D008D8A02364
:1001C0001B0698421CD0124B9842EAD1A0200BE0AB
:1001D000104B98420AD0104B984209D00F4B9842CE
:1001E000DFD10F487047A420C003FBE70D48F9E7B3
:1001F0000D48F7E70D48F5E70D48F3E70D48F1E73F
:100200000020EFE706005200FF005200010000F05E
:10021000090000A0040000F0050000F0030000F059
:100220000100520002005200030052000100500081
:10023000020050000500520010B50020FFF79AFFA1
:100240000A4B1C682300BC331B68C0180368002BD2
:100250000ADB074B1868FFF799FF012263689A6071
:100260009A68002AFCD110BD0248FCE7C4050008CA
:10027000CC03000802005000064B1B68BC331B680F
:10028000C3181B68002B03DA89B241600020704755
:100290000148FCE7C405000801008A000368002B40
:1002A00004DA89B2C2608160002070470048FCE730
:1002B00001008A00064B1B68BC331B68C3181B680F
:1002C000002B03DAC36800200B6070470148FCE78D
:1002D000C405000801008A00024B1A68002A00D1F8
:1002E00018607047E0030008F0B52C246043154CFB
:1002F0001F0024681D0A2018FF2425402740124CA7
:100300001B0C26680760346A45608360BA363688FD
:1003100077433F1907612F0080376D017F01E7198F
:1003200064190A4D47611F043B436419236000238D
:100330008361059BC2610162002B01D01B88838110
:10034000F0BDC046E0030008C40500080810000026
:10035000F0B5836885B002AD2B800368066A173359
:100360006B804368476A0095826AC16A0400039300
:100370000369C068FFF7B8FF00213B000A00009145
:100380003000FFF7B1FF216B280000F02DFB0022A9
:10039000AB5E002B06DB1F2213401E3A9A4013006F
:1003A000014A136005B0F0BD00E100E0F7B52C256F
:1003B000134C684326686943341825690193711802
:1003C000002D19D08869002818D12E68002E15DA62
:1003D0006768012426004B689E40B44613689EB2AD
:1003E00063461B041E431660EA608C61BC40019B9F
:1003F000A4B24B62AC60FEBD0248FCE70248FAE7DB
:10040000E003000804028A0007028A0073B5002690
:1004100042690400D56801962B0CB34221D01B041D
:1004200013601368194B00691B68BC331B68C31841
:100430001B68B34215DA01A9FFF73CFFB0420CD1AB
:100440000198E26903681E0CDBB29A4205D9226A60
:100450009B009B58002B00D0984731002069FFF784
:100460000BFFADB2002D09D063691D6000251B682C
:10047000636AAB4205D098476562A56163691B68F2
:1004800073BDA36A002BF8D09847F6E7C4050008AF
:100490002C2310B54343034A1068C018FFF7B6FF7A
:1004A00010BDC046E0030008F8B5194B0F001B68EB
:1004B0001A0033321278824227D9002925D01F250D
:1004C0000A68154021D11900BA310C88114E6043D9
:1004D0001C6AD208041929007868346000F07EFF95
:1004E00029002000FFF7C8FE3A0029003068FFF716
:1004F000D5FE041E07D101003068FFF7BDFE0300E2
:100500002000002B00D00448F8BD0448FCE7C0469A
:10051000C4050008E403000801018A0003018A0001
:1005200010B5002A0DD1002914D10B4B1A68130005
:10053000BA331B885843136AC018084B1860080068
:1005400010BD002906D0064B196019005A60FFF74C
:10055000ABFFF5E70348F3E7C4050008E403000830
:100560007803000803018A00F7B5184F04003B68C0
:100570000191DE683368834226D90025A94202D161
:10058000FFF7ABFD050038680368002B1ADA1F225D
:1005900001232240934064097268A4001419226860
:1005A00013420DD09A43226000240021FFF764FE1D
:1005B000019B002B02D12800FFF793FD2000FEBD18
:1005C000034CF2E7034CF3E7034CF7E7E4030008BE
:1005D000020188000301880004018A000A4B1B689D
:1005E000DB681A6882420DD959681F2342091840F6
:1005F0001E3B8340920050581840431E9841034BC5
:10060000C01870470248FCE7E403000800018800B6
:1006100004018A00054B1B681A0088321B681268A7
:100620009B181868000AC0B27047C046C40500088D
:10063000044B1B681A0088321B6812689B181868E4
:10064000000E7047C4050008024B18694007C00F30
:100650007047C04600002740A6220549D2008B58AB
:100660000220DB439B0702D00123885818407047C3
:100670000000264010B5FFF7EFFF0023022801D14C
:10068000014B1B68180010BDEC030008094A8300E9
:100690009B18D0229200985807221040042807D1B6
:1006A000C022920098581F23034080204000184326
:1006B0007047C0460000264010B5FFF7E7FF02284C
:1006C0001CD005D8002824D0012814D0002014E024
:1006D0001223FF33984214D01423FF33984215D0CD
:1006E000033B9842F2D10C4A0C4BD358002BEDDA65
:1006F0008020000201E00A4B186810BDFFF7BAFF26
:10070000FBE7FFF7A1FF0028E0D0F1E7024A054B25
:10071000EBE70548F1E7C046000026400C05000065
:10072000E80300083C05000000127A00B023154AD7
:10073000DB00D35810B59903DB01DB0F890BC371C4
:10074000114B0160D3580F24D904DB01DB0D038169
:10075000B123DB00D358C90C81801900214081727C
:1007600019092140C172D9029B009B0F8373074B6B
:10077000C90CD35881815A05DB01520FDB0D827100
:10078000038210BD00002640840500008C05000097
:1007900010B5104B421E1B683F331B78934216D98D
:1007A0007F221F248030FF300B4B8000C3581A403B
:1007B0000A701A0C2240180A8A701A012040E2407E
:1007C000487000209B009B0FCA700B7110BD03483E
:1007D000FCE7C046C40500080000264001004A00AE
:1007E000F0B589B003AC14220021200000F0F6FD22
:1007F0002000FFF79BFFB0231A4ADB00D2580023EA
:100800009A4203DAA37B023B5A1E9341E579002604
:100810006A1E95410135B34221D0A488B4421ED04E
:10082000039B30000193FFF747FF2A0033000700C6
:100830003100200000F0BCFC0C0005003300019AE0
:100840003100380000F0B4FCE6076A083243630860
:10085000801859412A00230000F08AFC060030006D
:1008600009B0F0BD00002640F0B50026244B85B04D
:100870001B6807003F331B78B3423ED0B0423CD0E8
:1008800083423AD30522310002A800F0A7FD02A955
:100890003800FFF77DFF3B008033FF33194A9B0090
:1008A0009B58B34229DA02AB1B79022B25D002AB4D
:1008B0005C78B44221D09D78B5421ED01B783800B8
:1008C0000193FFF7F9FE2A003300070031002000F2
:1008D00000F06EFC0C0005003300019A3100380076
:1008E00000F066FCE6076A08324363088018594145
:1008F0002A00230000F03CFC0600300005B0F0BDEB
:10090000C40500080000264010B5041E04D1FFF7FE
:1009100067FF002806D008E0064B1B683F331B78B2
:10092000834203D22000FFF7C7FE10BDFFF79CFFF4
:10093000EFE7C046C4050008E02210B50124094BCA
:1009400080009200C018835880589B069B0F9C40E3
:100950000F231840FFF7D8FF63081818210000F094
:100960007BFB10BD00002640144B30B51A680724ED
:1009700013002C331B781F2B15D883081D00A543AB
:100980002C1E0FD103342040A040814012689B00F0
:100990002032D3180A00FF2181401C6862401140B8
:1009A0006140196030BD802320401B06184380231E
:1009B0009B011268C91889008850F3E7C405000834
:1009C000064B9A680300064810339B00824202D10E
:1009D000985899507047034AD058FBE700ED00E063
:1009E0000000000800000010F8B506000D00002807
:1009F0003AD00023C05E002828DB7188FFF7B4FFDF
:100A00000024FF22032794460023F05E716883B21E
:100A10001F40FF006646BA4089013140D243B940C9
:100A2000002815DB114E83089B009B19C026B600D9
:100A30009F593A40114399510D4B9A680D4B9A4278
:100A400002D12900FFF7BCFF2000F8BD0A4CD8E70F
:100A50000F263340083B064E9B089B009B19DE691E
:100A600032401143D961E7E7034CEDE700E100E0D4
:100A700000ED00E00000000801005600FEE7000065
:100A800002680A4B10B51A6042685A6082689A6020
:100A9000C268DA6002691A6142695A6182699A61C0
:100AA000C269DA61FFF7EAFF10BDC0469003000893
:100AB000B0235B055A782120002A01D05878C0B2B3
:100AC0007047B0235B059A89002A02D0988980B2CA
:100AD000704780204000FBE77FB5274B86000D0064
:100AE000F458042901D0012927D100200FE0A36880
:100AF0002B420BD1E36829001A685B6802920193CC
:100B0000039302A8236898471C4B1C606469002C5F
:100B10000BD01B4B9842EAD1012DE8D1174B184856
:100B20001A68184B9A5104B070BD012DFBD1144BBB
:100B30009842F3D0134B9C51F5E7022906D10F4B95
:100B40001B68181EEFD01C6903E01C006369002BB2
:100B5000FBD10020002CE6D0A3682B4209D1E3682A
:100B600029001A685B6802920193039302A8236824
:100B700098472469EEE7C046300400082C040008BA
:100B8000FF004200180400081A4B1B681900883146
:100B90001A68096851180968016219008C310968DE
:100BA0005218126842621A0046321278002A1FD088
:100BB0009A68E0321268D2061AD5F222DB68D201B6
:100BC0009A580260F022D2019A5842600A4A9A5812
:100BD00082600A4A9A58C260094A9A580261094AD0
:100BE0009A584261084A9A588261084A9B58C361E0
:100BF0007047C046C405000804780000087800006B
:100C00000C780000107800001478000018780000BC
:100C10001A4B1B681A008832196812688A18016A10
:100C200011601A008C32196812688A18416A1160C2
:100C30001A0046321278002A1ED09A68E0321268F2
:100C4000D20619D5F0224168DB68D201995081683B
:100C50000B4A9950C1680B4A995001690A4A995048
:100C600041690A4A99508169094A9950C169094AFA
:100C700099500168E83299507047C046C405000891
:100C800004780000087800000C780000107800005C
:100C90001478000018780000F7B50700FFF708FF88
:100CA000664D06006B68002B00D07DE0FFF715FA5B
:100CB0006B680090002B00D089E0614C2268130023
:100CC000BA33198807234B43126A9B181A68002A03
:100CD000FCDADB68DA0021D51B0F1B0759480193AA
:100CE000FFF752FF5849212E00D075E0226890206E
:100CF000130088331C68136800011C1923680B401B
:100D00000343236013008C3312681B68D3181A68DE
:100D10001140084318604B4B019A13438022484E00
:100D20009205316813430A00BA3210880722002462
:100D30004243096A5218D36054605368FFF7C1FEFA
:100D400080235B0098425DD1380000F05DFB326883
:100D50001300BA33198807234B43126A9B181A6889
:100D6000002AFCDADF68FB0003D538010009FFF731
:100D70004FFF364B32681F401300BA3319880723E0
:100D80004B43126A00989B180022DF605A60FFF7FD
:100D9000A8F9002C0FD16B68002B03D0082101208B
:100DA000FFF79AFE2000FEBD01210800FFF794FE28
:100DB000041E00D17AE76B68002B03D002210120CA
:100DC000FFF78AFE224B9C42ECD0224CEAE704213A
:100DD0000120FFF781FE70E720688022030088333E
:100DE0001C68036852001C1923680B4013432360DE
:100DF00003008C3300681B68C318186801400A435D
:100E00001A6088E733681A00BC32196A12685218EF
:100E10001168002910DBBA331B889A181368002B5D
:100E20000ADB04230C4A11690B431361012F01D023
:100E300030BF8CE720BF8AE7054C88E73004000804
:100E4000C4050008F0030008FF00FFFFFFFFFFDFFD
:100E500005004200FF00420000ED00E0C0228020BB
:100E6000064952008B58C0059B009B0803438B50DA
:100E7000802388581B0603438B5070470000264090
:100E800010B562B6034800F0C1F80020FFF704FF78
:100E9000FBE7C0460020001010B50020FFF7F8FA6D
:100EA00010BD704710B50020FFF746FD041E25D089
:100EB000134B1860FFF7BCFB411C200000F0CCF87E
:100EC000104B04001860FFF7A5FB411C200000F048
:100ED000C3F80D4B441E18600C49200000F0BCF80C
:100EE000FA210B4B013018708900200000F0B4F893
:100EF000084B01301860084BC003186010BDC04695
:100F000084000008880000088000000840420F00AC
:100F100094000008900000088C00000810B52048DC
:100F2000FFF722F9B022E02130201E4CD200A35856
:100F300089005B005B08A3506358834363508023A0
:100F40005B04A350184B194AE250A02204339201CB
:100F5000E250FF22164BE250FFF780FFC022012132
:100F60005200A3588B43A350FFF79BFFFFF79AFF54
:100F7000104B03201A681300BA33198807234B4318
:100F8000126A80219B180022DA605A600A4AFFF731
:100F9000C7FA0A48FFF7A0F90948FFF7D9F910BDC9
:100FA0001814001000002640840500000100020013
:100FB0008C050000C40500088003000844040008F4
:100FC000D81400109023034A5B01D0580323184023
:100FD0007047C0460000204010B59024FFF77DF810
:100FE000074B64011A5907491140074A0A431A512D
:100FF000102259681142FCD0FFF773F810BDC046AB
:1010000000002040FCFF00000100FA05F8B5902523
:101010000E4C6D010700FFF760F863590600DB43D3
:101020009B0701D1FFF7D8FF80239B00E75063594E
:10103000074A1A40074B13436351102362681A4250
:10104000FCD03000FFF74DF8F8BDC046000020404E
:10105000FCFF00000300FA05002243088B4274D312
:1010600003098B425FD3030A8B4244D3030B8B42A9
:1010700028D3030C8B420DD3FF22090212BA030CB2
:101080008B4202D31212090265D0030B8B4219D393
:1010900000E0090AC30B8B4201D3CB03C01A5241B3
:1010A000830B8B4201D38B03C01A5241430B8B42FB
:1010B00001D34B03C01A5241030B8B4201D30B03E4
:1010C000C01A5241C30A8B4201D3CB02C01A52410B
:1010D000830A8B4201D38B02C01A5241430A8B42CE
:1010E00001D34B02C01A5241030A8B4201D30B02B7
:1010F000C01A5241CDD2C3098B4201D3CB01C01AD1
:10110000524183098B4201D38B01C01A52414309DA
:101110008B4201D34B01C01A524103098B4201D3C8
:101120000B01C01A5241C3088B4201D3CB00C01A35
:10113000524183088B4201D38B00C01A52414308AD
:101140008B4201D34B00C01A5241411A00D20146D2
:10115000524110467047FFE701B5002000F006F845
:1011600002BDC0460029F7D076E770477047C046F9
:10117000002B11D1002A0FD1002900D1002802D064
:101180000021C943081C07B4024802A1401802907C
:1011900003BDC046D9FFFFFF03B4684601B50298FE
:1011A00000F030F8019B9E4602B00CBC7047C04670
:1011B000F0B5CE46474615042D0C2E0080B5070429
:1011C000140C3F0C9946030C7E435D436743634315
:1011D0007F19340CE4199C46A54203D980235B0295
:1011E0009846C4444B4643435143250C360465445A
:1011F000360C2404A4195B19591820000CBC904625
:101200009946F0BDF0B54F464646D646C0B50400F7
:1012100082B00D00914698468B422FD82CD0414683
:10122000484600F0CFF829000600200000F0CAF878
:10123000331A9C46203B9A4600D576E04B465246F0
:1012400093401F004B46624693401E00AF4228D891
:1012500025D05346A41BBD41002B00DA7BE00022C1
:1012600000230092019301235246934001930123EE
:1012700062469340009318E08242D0D900220023B6
:10128000009201930A9B002B01D01C605D600098C6
:10129000019902B01CBC90469946A246F0BDA342FB
:1012A000D7D900220023009201936346002BE9D096
:1012B000FB079846414672080A437B0866460EE0E3
:1012C000AB4201D1A2420CD8A41A9D41012024199D
:1012D0006D410021013E24184D41002E06D0AB4245
:1012E000EED9013E24196D41002EF8D100980199E4
:1012F000534600196941002B23DB2B005246D34093
:101300002A006446E2401C0053461500002B2DDBEA
:1013100026005746BE40330026006746BE403200D6
:10132000801A994100900191ACE7624620239B1AF4
:101330004A46DA406146130042468A4017001F437E
:1013400080E7624620239B1A2A0066469A402300C3
:10135000F3401343D4E76246202300219B1A002266
:10136000009101920122DA40019280E72023624637
:1013700026009B1ADE402F00B0466646B740464620
:101380003B003343C8E7C0461C2101231B0498429D
:1013900001D3000C10391B0A984201D3000A083906
:1013A0001B09984201D30009043902A2105C4018BD
:1013B0007047C04604030202010101010000000061
:1013C0000000000010B5002903D1FFF7DDFF203039
:1013D00002E0081CFFF7D8FF10BDC046030012183A
:1013E000934200D1704719700133F9E7F8B5C04650
:1013F000F8BC08BC9E467047F8B5C046F8BC08BCAF
:101400009E4670470000000001B40248844601BCBB
:10141000604700BF61020008000020400000244037
:1014200000000040000000000000234000003040A9
:101430000000314000009F400000224000001040AA
:1014400000009D402020202020101010101D1D8025
:1014500017007500FF030602060036041020000086
:101460007FC0000000040000000000000019324BA3
:10147000647D0000000000804000080B10000000A8
:101480000000FF012002001F00800004FF08101868
:10149000001000140018001C4044484C500000008C
:1014A0000810000008000000040000000410000004
:1014B00000120000042100000021000000160000BE
:1014C00040114002C41300138013A013401388136B
:1014D000A81320001C000000030000000100000011
:1014E000010000000000000005036000040000008F
:1014F0000100000000000000010000000604600080
:1015000008000000A4050008990E0010000000006B
:10151000F4FCFF7F01000000000000100000000844
:10152000800000003815001080000008F80200005C
:10153000B00300081802000000093D0000127A0004
:1015400000093D000000D007A00F000004000000CB
:10155000A90000108100001080B230B5C00020D07A
:10156000104B07221C682300BA331B885A43236A96
:10157000D31819680029FCDA3E210B4B06251960A7
:101580000A4B0B491960A3210A4BC9005D500A4957
:1015900058505858206A1218002050605A58002A93
:1015A000FCDA30BDC40500080401264008012640CD
:1015B0001E1F0000000026401C05000010B54378E7
:1015C000FF2B11D100F01CF90400032000F008F9F2
:1015D000C3685A68012311681943116011681942E0
:1015E000FCD1200000F0DCF810BDF7B50090002021
:1015F000019100F0F5F83F4D06002B681A005033BA
:10160000BC3214681B780419002B5AD000F0F0F893
:10161000070003281BD000F0F3F8374A374B0500CA
:10162000D358002B3EDA364A0121300000F0F0F8A2
:10163000002837D10198FFF78FFF009B002B3ED089
:101640002368002BFCDB00F0BBF804002BE0062035
:1016500000F0C6F82B68BC331B68C0180368002B69
:1016600002DA284C2000FEBD002000F0A1F8264B35
:101670009842F6D00023254A19001268012000F094
:10168000A7F80025A842ECD1002000F091F81E4AEE
:101690001F4B904203D09D42E3D00135F4E79D42B9
:1016A000B9D1DEE7174C032F05D10121002000F04E
:1016B000B7F80028F9D1280000F072F8D2E7154CED
:1016C000F1E700F09DF80E4A05000121300000F01E
:1016D0009FF8002809D1009B002B08D02368002B1D
:1016E000FCDB00F06DF80400E5E7064CE3E7094C8D
:1016F000E1E7C046C4050008000026401C050000C4
:10170000CC0300080500520001018800DC0300083A
:10171000F049020001005000184BF7B51B68184A49
:101720005C68042311690B431361012824D030BF86
:101730002300FC331B69002B1DD1A320114B124940
:10174000124AC0000F681E5815680195104D0D60B3
:1017500006251D503E2010600E483E351D501D5878
:10176000002DFCDA0C48FC3420610F60A321C90075
:101770005E50019B1360F7BD20BFD9E7C405000888
:1017800000ED00E00000264008012640040126404C
:101790001E1F00001C050000AAAAAAAA0000000043
:1017A00001B40248844601BC604700BFE30000105A
:1017B00001B40248844601BC604700BFDD0500104B
:1017C00001B40248844601BC604700BF39020010E2
:1017D00001B40248844601BC604700BFAD0300105D
:1017E00001B40248844601BC604700BF7501001087
:1017F00001B40248844601BC604700BFC50F001019
:1018000001B40248844601BC604700BFDB00001001
:1018100001B40248844601BC604700BF9D0200102D
:1018200001B40248844601BC604700BF690500104E
:1018300000000000000000000000000000000000A8
:081840000000000000000000A0
:1020000000F80F088D5901100D000000095B011048
:10201000015A0110015A0110015A0110000000007C
:10202000000000000000000000000000FD59011049
:10203000FD590110000000004B5A0110FD5901101C
:10204000FD590110FD590110FD590110FD590110F4
:10205000FD590110FD590110FD590110FD590110E4
:10206000FD590110FD590110FD590110FD590110D4
:10207000FD590110FD590110FD590110FD590110C4
:1022E00010B5054C237833B9044B13B10448AFF350
:1022F00000800123237010BDA02B00080000000007
:1023000028C9011008B5034B1BB103490348AFF3BB
:10231000008008BD00000000A42B000828C901109F
:1023200080B400AF01BE00BFBD465DF8047B7047BE
:1023300080B582B000AF08F065FF78607B68002B45
:1023400001D0FFF7EDFF00BF0837BD4680BD80B567
:1023500082B000AF03463960FB710DF08FFC00BF07
:102360000837BD4680BD80B500AF0EF0CFFE0DF042
:10237000B5FC0EF0EBFE00BF80BD000080B500AFE5
:10238000084B1B68084AA2FB03239B09194604203B
:1023900008F07AFB0549002008F0E2FB08F034FB66
:1023A00000BF80BD6C240008D34D6210672300106D
:1023B00080B500AFFFF7BCFFFFF7E0FF0749084813
:1023C0000FF038FE00F0FAFA00F09AFC05480FF022
:1023D00061FD0DF01DFD00BF80BD00BF00E80F08CE
:1023E000B03700088477011080B483B000AF034693
:1023F000FB80B7F90630002B12DBFB8803F01F02CD
:102400000A49B7F906305B09012000FA02F22033CD
:1024100041F82320BFF34F8F00BFBFF36F8F00BF82
:1024200000BF0C37BD465DF8047B704700E100E05B
:1024300080B485B000AF78607B680E2B07D8094B5D
:102440001B689A697B68DB011344FB6003E0054B62
:102450001B689B69FB60FB6818461437BD465DF836
:10246000047B70477C2E000880B582B000AF034625
:102470000A46FB711346BB71FB79DB08DBB21846D9
:10248000FFF7D6FFFB7903F00703BA79194603F08B
:10249000A6FF00BF0837BD4680BD80B582B000AF43
:1024A0000346FB71FB79DB08DBB21846FFF7C0FF80
:1024B0000246FB7903F007031946104603F078FF44
:1024C0000346002B14BF01230023DBB21846083754
:1024D000BD4680BD80B582B000AF0346FB80B7F932
:1024E00006301846FFF780FF00BF0837BD4680BDA5
:1024F00080B582B000AF78607B68DBB2DB08DBB20E
:102500001846FFF795FF02467B68DBB203F007032E
:102510001946104604F018F80C4A7B681B01134456
:1025200008331B68002B0DD0084A7B681B0113443D
:1025300008331B6805497A6812010A440C32126894
:102540001046984700BF0837BD4680BDE02200080E
:1025500080B582B000AF0346FB80FB881846FFF7CA
:10256000C7FF00BF0837BD4680BD80B582B000AF51
:1025700078600B46FB700EF0C9FD7B681B8818461F
:10258000FFF7E6FF0EF0E2FD00BF0837BD4680BD55
:1025900080B586B000AFF860B9601346FB71BB68C8
:1025A000DBB2DB08DBB20E2B3AD8BB68FB82FB79CF
:1025B000042B36D801A252F823F000BFD125001019
:1025C000E1250010F1250010012600101126001051
:1025D000FB8AD8B201230622012101F0FBF820E09A
:1025E000FB8AD8B200230022002101F0F3F818E0A2
:1025F000FB8AD8B201230222022101F0EBF810E09D
:10260000FB8AD8B200230322022101F0E3F808E09C
:10261000FB8AD8B201230222022101F0DBF800E09C
:1026200000BF1837BD4680BD80B586B000AFF860EA
:10263000B9601346FB71BB68DBB2DB08DBB20E2B63
:102640000ED8BB68FB82FB8ADAB2FB79002B14BF81
:1026500001230023DBB219461046FFF705FF00E017
:1026600000BF1837BD4680BD80B584B000AF78602C
:1026700039603B68DBB2DB08DBB20E2B09D83B6864
:10268000FB81FB89DBB21846FFF707FF03465BB20D
:1026900001E04FF0FF3318461037BD4680BD000003
:1026A00080B586B000AFF860B9603B601346FB713F
:1026B000BB68DBB2DB08DBB20E2B12D8BB68DBB227
:1026C000DB08DBB2FB82BB68BB8213F0A7F9386181
:1026D000FB8A2E4A1B0113441B68BA689A4223D115
:1026E00002E04FF0FF334CE0FB8A284A1B01134401
:1026F00008331B683A689A4216D1FB8A234A1B01A9
:10270000134404331B78FA799A420DD1FB8A1F4A8D
:102710001B0113440C331B683A6A9A4204D138698E
:1027200013F080F900232CE0FB8A184A1B011344A4
:102730001B68B3F1FF3F05D0386913F073F96FF0F0
:1027400006031EE0FB8A114A1B011344BA681A6093
:10275000FB8A0E4A1B01134408333A681A60FB8A4D
:102760000A4A1B0113440433FA791A70FB8A074A98
:102770001B0113440C333A6A1A60386913F052F99A
:10278000002318461837BD4680BD00BFE022000870
:1027900080B584B000AF786039603B68DBB2DB089D
:1027A000DBB20E2B12D83B68DBB2DB08DBB2FB815D
:1027B0003B68BB8113F032F9B860FB89194A1B01F1
:1027C00013441B68B3F1FF3F08D102E04FF0FF3321
:1027D00024E0B86813F026F900231FE0FB89114AB2
:1027E0001B0113444FF0FF321A60FB890D4A1B0195
:1027F0001344083300221A60FB890A4A1B01134460
:10280000043300221A70FB89064A1B0113440C335F
:1028100000221A60B86813F005F900231846103733
:10282000BD4680BDE022000880B58AB000AFF860E8
:10283000B9601346FB71BB68DBB2DB08DBB20E2B61
:102840000AD8BB68DBB2DB08DBB2BB84BB687B8425
:10285000FB79012B7BD102E04FF0FF33A2E013F0B4
:10286000DDF8F861BB8C514A1B0113441B68B3F1BE
:10287000FF3F05D1F86913F0D5F86FF0090391E037
:10288000BB8C9B004A4A1344BB61BB69B3F902305D
:102890009AB2BB691B88DBB2DB08DBB29BB2134484
:1028A0009BB2BB82B7F91430424A1B011344424A1F
:1028B0001A60BA8CB7F9143092003D490A443D4978
:1028C0001B010B4404331A607B8CDAB2B7F9143065
:1028D0001B0138490B441946104600F0E7FF7B8C7A
:1028E000DBB2DB08DBB21846FFF7A2FD02467B8CA9
:1028F000DBB203F007031946104603F025FEBB8C3C
:102900002A4A1B01134404331B78022B0ED0022BDE
:1029100010DC002B02D0012B04D00BE0012387F840
:10292000273008E0022387F8273004E0032387F8E4
:10293000273000E000BF7B8CD8B297F82710012326
:10294000072200F0FFFFF86913F06CF829E0FB792B
:10295000002B23D113F062F8F8617B8CDBB2DB082B
:10296000DBB21846FFF764FD0346184603F02EFC61
:10297000BB69B3F902309AB2BB691B88DBB2DB08D2
:10298000DBB29BB213449BB2FB82B7F916301846F8
:10299000FFF7A0FDF86913F045F802E06FF00903B6
:1029A00000E0002318462837BD4680BDE02200081D
:1029B0008C770110BC2B00086B25001080B500AF90
:1029C00000220349034809F0C1FA0346184680BDB6
:1029D000C8770110E477011080B483B000AF0346DC
:1029E000FB80B7F90630002B0BDBFB8803F01F02DE
:1029F0000749B7F906305B09012000FA02F241F8F5
:102A0000232000BF0C37BD465DF8047B704700BF34
:102A100000E100E080B582B000AF786039603968CD
:102A2000786804F04AFB034618460837BD4680BD67
:102A300080B584B000AF78607B68002B04D147225A
:102A4000154916480FF0A0FB7B68DB6BFB60FB6849
:102A5000002B04D14922104911480FF095FBFB6867
:102A60001B681B69D3F8CC3F03F00403002B0FD085
:102A7000FB681B681B69D3F8C02FFB681B681B69C8
:102A800002F00402C3F8C02F012178680AF03CFD6F
:102A900000BF1037BD4680BD8C780110F87701105B
:102AA0000C78011080B500AF0EF030FB0348FFF743
:102AB000BFFF0EF04BFB00BF80BD00BFB02C000875
:102AC00080B500AF0EF022FB0348FFF7B1FF0EF018
:102AD0003DFB00BF80BD00BF102D0008B0B58EB01B
:102AE00004AF786039607B68002B04D1B52223499C
:102AF00023480FF049FB7B68DB6B3B623B6A002B92
:102B000004D1B7221D491F480FF03EFB1E4B07F1B1
:102B10000C041D460FCD0FC42B6823603B6A1B6855
:102B200018683B6A1B689B68D9B23B6A1B68DB6804
:102B3000DAB207F10C03029300230193FF23009301
:102B4000FF2302F04BFD78627B6A002B09D13B6AC0
:102B50001B6818683B681B680022194602F03CFE9F
:102B600078627B6A002B04D0CC22044907480FF01E
:102B70000BFB002318462837BD46B0BD98780110DE
:102B8000F87701100C780110307801101C780110D2
:102B900080B586B000AFF860B9607A60FB68002B42
:102BA00004D1D322184919480FF0EEFAFB68DB6B09
:102BB0007B617B69002B04D1D522134914480FF0A7
:102BC000E3FABB68062B02D0BB68072B17E07B69D2
:102BD0001B681B690422C3F8C82F7B691B68DA696C
:102BE0007B691B689B691946104606F03DFF7B69AF
:102BF0001B68B3F914301846FFF7EEFE00BF002340
:102C000018461837BD4680BDA8780110F877011026
:102C10000C78011080B584B000AF78600B46FB7073
:102C20007B68002B04D1EE22144915480FF0ACFA52
:102C30007B68DB6BBB60BB68002B04D1F2220F49C1
:102C400010480FF0A1FA01F069FB0346002B01D0F8
:102C50000D4B0FE00023FB6008E0BB681B681B699D
:102C6000FA7811461846FFF7D5FEF860FB68002B8E
:102C7000F3D0012318461037BD4680BDB47801104B
:102C8000F87701100C780110031A020480B586B0A1
:102C900000AF78607B68002B05D14FF48372154933
:102CA00015480FF071FA7B68DB6B3B613B69002BC9
:102CB00005D14FF484720F4910480FF065FA4FF0B8
:102CC000FF337B613B691B681B6807F10F010A2218
:102CD000184602F025FE0346002B02D1FB7B7B61E8
:102CE00002E04FF0FF337B617B6918461837BD4621
:102CF00080BD00BFC4780110F87701100C78011076
:102D000090B587B000AF02233B613F4A3B1D92E87C
:102D1000030083E803000023FB6000237B616AE07B
:102D20007B695B01394A991839487A6913465B0017
:102D300013445B010344196035497A6913465B000B
:102D400013445B010B444433324A1A6030497A69B8
:102D500013465B0013445B010B4448331A463B1D8A
:102D600093E8030082E8030029497A6913465B006F
:102D700013445B010B441C68A8200FF08DF9034637
:102D8000236023497A6913465B0013445B010B44BB
:102D90001B681B68002B05D14FF498721E491F4811
:102DA0000FF0F2F97A6913465B0013445B01184A8D
:102DB0001344181D16497A6913465B0013445B01DE
:102DC0000B441B6859687A6913465B0013445B0126
:102DD0000F4A134440F203120AF048FBF860FB6804
:102DE000002B05D04FF49C720B490D480FF0CCF925
:102DF0007B6901337B617B693A699A4290D800BF55
:102E000000BF1C37BD4690BD70780110F02300084C
:102E1000AC2C000878780110D478011044780110A7
:102E20001C78011080B400AF01BE00BFBD465DF844
:102E3000047B704780B584B000AF0346B9607A6008
:102E4000FB73BB681B7803F00303D8B2BB685B78E5
:102E50007A68194605F0AEF8034618461037BD46A5
:102E600080BD80B584B000AFB9607A603B60034636
:102E7000FB73BB681B7803F00303D8B2BB685B78B5
:102E800019463B687A6805F001F903461846103781
:102E9000BD4680BD80B582B000AF03463960FB718E
:102EA0003B681B7803F00303DAB23B685B78194692
:102EB000104605F0F7F9034618460837BD4680BDB1
:102EC00080B582B000AF03463960FB713B681B7868
:102ED00003F00303DAB23B685B781946104605F04D
:102EE00049FA034618460837BD4680BD80B586B00E
:102EF00000AF0346B9607A60FB73FB7B7968BA6800
:102F000091428CBF01220022D2B293420DD0FB7BB2
:102F100083F00103DBB219467A68BB689A4234BF7A
:102F200001230023DBB299420DD107F0B5FC034623
:102F3000FB757B680A4AA2FB03239A0CFB7D1146B2
:102F4000184606F013FFFB7B83F00103DBB2002B76
:102F500001D007F069FE00BF1837BD4680BD00BF35
:102F600083DE1B4380B584B000AFF860B9607A603F
:102F7000FFF758FF024B18461037BD4680BD00BF13
:102F80000202020480B582B000AF78607B685B7893
:102F9000184605F077FB034618460837BD4680BD46
:102FA00080B582B000AF78600B46FB701346BB70F3
:102FB000FB78002B06D07B685B78184605F038FB61
:102FC000034605E07B685B78184605F07BFB03460B
:102FD00018460837BD4680BD80B582B000AF786026
:102FE0007B685B78184606F073FB03461846083783
:102FF000BD4680BD80B58AB000AF786039603B685F
:10300000013B072B22D801A252F823F02D300010EB
:10301000353000104D3000103D3000104D300010A4
:103020004D3000104D30001045300010002387F85F
:1030300027300DE0012387F8273009E0022387F8C5
:10304000273005E0032387F8273001E0224B3EE0DC
:10305000002005F0E9FB03463B62002005F090FBF1
:103060000346FB61F86905F097FDB861BA693B6AF0
:1030700022FA03F37B6197F82730BA6922FA03F347
:103080003B617B685B78002B04D13A697969012048
:10309000FFF72CFF7B685B781A4697F827301946B4
:1030A000104605F08DFBF8607B685B78002B0DD136
:1030B000FB68002B05D13A6979690020FFF716FFFC
:1030C00004E07A6939690020FFF710FFFB681846B1
:1030D0002837BD4680BD00BF0002020480B485B021
:1030E00000AFF860B9607A60BB68064A1A607B6816
:1030F00009221A60002318461437BD465DF8047B88
:10310000704700BF3024000880B588B000AF7860F9
:1031100039603B681B780D2B03D03B681B780E2B66
:1031200003D13B685B78FB610AE03B681B780F2B9F
:1031300004D13B685B780133FB6101E0224B3FE047
:10314000002005F071FB0346BB61002005F018FB71
:1031500003467B61786905F01FFD0246BB6922FAD0
:1031600003F33B61F86905F017FD0246BB6922FADB
:1031700003F3FB607B685B78002B04D1FA68396944
:103180000120FFF7B3FE7B685B781A46FB69DBB270
:103190001946104605F0C2FAB8607B685B78002BD0
:1031A0000DD1BB68002B05D1FA6839690020FFF703
:1031B0009DFE04E03A69F9680020FFF797FEBB68BE
:1031C00018462037BD4680BD0102020480B582B09A
:1031D00000AF78600B46FB701346BB70FB78002B8A
:1031E00005D079680020FFF755FE034604E07968B2
:1031F0000020FFF765FE034618460837BD4680BD30
:1032000080B582B000AF786039607B681B7803F0CE
:103210000203002B08D13B68013B1A467968002065
:10322000FFF708FE034607E03B685A1E0023796853
:103230000020FFF716FE034618460837BD4680BD3E
:1032400080B400AF024B1846BD465DF8047B704762
:10325000CC79011080B586B000AFF8600B467A607B
:10326000FB72FB7A184602F003FD0346BB75002390
:10327000FB751EE005233B74FB7A7B74FB7DBB74FE
:1032800007F11003184600F0DBFD0346002B0DD1BB
:10329000FB68FA7A1A70FB68FA7D5A70FB680122A3
:1032A0009A70FB687A685A60002307E0FB7D01335F
:1032B000FB75FA7DBB7D9A42DCD3024B184618376A
:1032C000BD4680BD020E020480B584B000AF7860B8
:1032D00039607B68002B01D1FFF7A4FD3B68002B10
:1032E00001D1FFF79FFD05233B723B681B787B7282
:1032F0003B685B78BB7207F10803184600F0A0FD3D
:10330000F860FB68002B07D108223968786812F052
:1033100073FC7B6801229A70FB6818461037BD4623
:1033200080BD80B582B000AF78600B46FB7013465D
:10333000BB707B68002B01D1FFF774FD7B681B78A5
:10334000122B07D1BA78FB7819467868FFF728FE68
:10335000034613E07B681B78032B07D8BA78FB7809
:1033600019467868FFF732FF034607E07B685B6821
:103370005B68BA78F9787868984703461846083742
:10338000BD4680BD80B582B000AF786039607B6893
:10339000002B01D1FFF746FD7B681B78122B05D16E
:1033A00039687868FFF726FE034610E07B681B78D3
:1033B000032B05D839687868FFF722FF034606E03B
:1033C0007B685B681B6939687868984703461846CC
:1033D0000837BD4680BD80B584B000AF78607B689B
:1033E000002B01D1FFF71EFD7B689B7883F0010362
:1033F000DBB2002B01D0FFF715FD05233B737B6883
:103400001B787B737B685B78BB7307F10C031846F2
:1034100000F04CFD7B6800229A7000BF1037BD465B
:1034200080BD000080B483B000AF0346FB80B7F9D5
:103430000630002B0BDBFB8803F01F020749B7F9AE
:1034400006305B09012000FA02F241F8232000BF98
:103450000C37BD465DF8047B704700BF00E100E01B
:1034600080B483B000AF0346FB80B7F90630002B71
:103470000DDB0A4AB7F906305B0952F82320FB88B6
:1034800003F01F0322FA03F303F0010300E000231B
:1034900018460C37BD465DF8047B704700E100E03C
:1034A00080B483B000AF03463960FB80B7F90630C3
:1034B000002B0ADB3B68DAB20C49B7F9063052013F
:1034C000D2B20B4483F800230AE03B68DAB2084921
:1034D000FB8803F00F03043B5201D2B20B441A766F
:1034E00000BF0C37BD465DF8047B704700E100E08B
:1034F00000ED00E080B400AF01BE00BFBD465DF846
:10350000047B704780B485B000AF78607B680E2B79
:1035100007D8094B1B689A697B68DB011344FB6081
:1035200003E0054B1B689B69FB60FB68184614377A
:10353000BD465DF8047B70477C2E000880B485B0E2
:1035400000AF0346FB710B233B72FB79DB08DBB258
:103550007B72FB7903F00703DBB2BB7207F10C034C
:1035600007F108021268114619800233120C1A7012
:1035700000233A7B62F307037A7B62F30F23BA7B63
:1035800062F3174318461437BD465DF8047B704755
:1035900080B584B000AF03460A46FB8013467B71BA
:1035A000FB88FB817B797B737A7BB7F90E30114600
:1035B0001846FFF775FF00BF1037BD4680BD80B5C8
:1035C00084B000AF0346FB80FB88FB81B7F90E3067
:1035D0001846FFF727FF00BF1037BD4680BD80B5F6
:1035E00082B000AF0346FB80B7F906301846FFF7FC
:1035F00037FF0346002B14BF01230023DBB218461C
:103600000837BD4680BD80B483B000AFEFF30583BB
:103610003B603B689BB2103B9BB2FB80B7F9063026
:1036200018460C37BD465DF8047B704780B588B0FE
:1036300000AFFFF7E8FF0346BB82B7F914303B61E8
:1036400001223B6902FA03F3FB6163E0FB693B6023
:103650003B68002B01D1202303E03B68B3FA83F3DE
:10366000DBB2C3F11F03FB60F868FFF74BFFB860E4
:103670002C4AFB6852F82330BB6131E0BB691B7BED
:1036800003F00703FB71FB791946B86802F09FFF4E
:103690000346002B21D0FB791946B86802F0F2FFEF
:1036A0000346BB71BB79013B012B02D8BB79FB758B
:1036B0000CE0FB791946B86802F07AFE0346002B4D
:1036C00001D0012300E00223FB7500BFBB691B682A
:1036D000BA695268F97D10469847BB699B68BB611F
:1036E000BB69002BCAD10023BB7507E0BB7D19461F
:1036F000B86802F029FFBB7D0133BB75BB7D072B8A
:10370000F4D90122FB6802FA03F3DB431A46FB6992
:103710001340FB61FB69002B98D100BF00BF20372D
:10372000BD4680BDC02A000880B584B000AF034606
:103730000A46FB711346BB71FB79082B3AD801A2EC
:1037400052F823F0693700107137001079370010F4
:103750007F370010853700108B370010913700102D
:10376000973700109D3700100823FB60FB682DE0A1
:103770000023FB60FB6829E00A23FB601EE00B23AB
:10378000FB601BE00C23FB6018E00D23FB6015E0E1
:103790000E23FB6012E00F23FB600FE0BB79012BCF
:1037A00002D0BB79022B02D10E23FB6006E0082376
:1037B000FB6003E0FFF79EFE0823FB60BB79012B53
:1037C00003D1FB6803F00703FB60FB681846103762
:1037D000BD4680BD90B589B002AF0446084611468B
:1037E0001A462346FB710346BB710B467B71134699
:1037F0003B712B4B1B7883F00103DBB2002B1ED0F7
:103800000023FB7507E0FB7D264A002142F82310C8
:10381000FB7D0133FB75FB7D0E2BF4D90023BB75BB
:1038200007E0BB7D204A002122F81310BB7D013345
:10383000BB75BB7D052BF4D9194B01221A70FB799E
:103840001846FFF77BFE03461A463A72C3F3072277
:103850007A72C3F30743BB7207F10803184600F0FE
:10386000EFFA38613B69002B15D1BA797B791146A3
:103870001846FFF759FFF860FB79DB08DBB2184602
:10388000FFF740FEFB7903F007013B79002200922D
:10389000FA6802F035FC3B6918461C37BD4690BDFE
:1038A0006C2D0008C02A0008FC2A000880B584B0EE
:1038B00000AF03463960FB7112F05FF8B860FB7926
:1038C000DB08DBB29B001E4A1344FB600FE0FB6881
:1038D0001B681B7BFA799A4205D1FB681B689A68C2
:1038E000FB681A6007E0FB681B680833FB60FB6835
:1038F0001B68002BEBD13B68002B19D03B681B6881
:10390000002B01D1FFF7F6FD3B68FA791A73FB79BA
:10391000DB08DBB21A460A4B53F822203B689A6058
:10392000FB79DB08DBB21946054A3B6842F82130D7
:10393000B86812F026F800BF1037BD4680BD00BF42
:10394000C02A000890B585B000AF0446084611466D
:103950001A462346FB710346BB710B467B71134627
:103960003B71FB79DB08DBB21846FFF7CBFD024663
:10397000FB7903F007031946104602F0E5FDFB79D9
:10398000DB08DBB21846FFF7BDFDFB7903F0070348
:10399000BA79194602F032FEFB79DB08DBB2184631
:1039A000FFF7B0FDFB7903F007033A79194602F0FF
:1039B000E5FDFB79DB08DBB2FB81B7F90E30184679
:1039C000FFF70DFE034683F00103DBB2002B0CD0A2
:1039D0007979B7F90E300A4A184600F0F8FAB7F9C3
:1039E0000E301846FFF7EBFD06E07A79B7F90E3096
:1039F00011461846FFF7CCFD00BF1437BD4690BDF9
:103A00002D36001080B400AF01BE00BFBD465DF88A
:103A1000047B704780B483B000AF0346FB71FB7931
:103A2000012202FA03F31A46064B1340002B14BF7F
:103A300001230023DBB29BB218460C37BD465DF86C
:103A4000047B7047280B0A0C80B483B000AF034698
:103A5000FB71FB79044A32F8133018460C37BD4627
:103A60005DF8047B704700BF8C7A011080B582B08E
:103A700000AF0346FB71FB79033B182B46D801A22C
:103A800052F823F0E93A00100D3B0010ED3A001017
:103A90000D3B00100D3B0010F13A0010F53A0010FC
:103AA0000D3B0010FD3A00100D3B00100D3B0010C7
:103AB0000D3B00100D3B00100D3B0010013B0010B2
:103AC0000D3B0010053B00100D3B00100D3B00109E
:103AD0000D3B00100D3B00100D3B00100D3B001086
:103AE000093B0010F93A00100C4B12E00C4B10E0AF
:103AF0000C4B0EE00C4B0CE00C4B0AE00C4B08E0BE
:103B00000C4B06E00C4B04E00C4B02E0FFF77AFF95
:103B1000002318460837BD4680BD00BF7C7A0110DF
:103B20001C7A0110507A0110547A0110587A011051
:103B30005C7A0110807A0110847A0110887A011071
:103B400080B582B000AF0346FB71FB79033B182BB5
:103B500046D801A252F823F0BD3B0010E13B001013
:103B6000C13B0010E13B0010E13B0010C53B0010E1
:103B7000C93B0010E13B0010D13B0010E13B0010BD
:103B8000E13B0010E13B0010E13B0010E13B001085
:103B9000D53B0010E13B0010D93B0010E13B001089
:103BA000E13B0010E13B0010E13B0010E13B001065
:103BB000E13B0010DD3B0010CD3B0010012312E083
:103BC0001A2310E001230EE002230CE001230AE097
:103BD000102308E0012306E0012304E0022302E0B1
:103BE000FFF710FF002318460837BD4680BD00BF11
:103BF00080B586B000AF3B600346FB710B46BB71DE
:103C000013467B71FB79042B05D1BB797B710D23A6
:103C1000BB710523FB71FB791846FFF715FF0346BF
:103C2000BB82FB7901331D2B07D8FB790133DBB253
:103C30001846FFF709FF034601E040F22B13FB8211
:103C4000FB791846FFF7E6FE0346002B32D0FB79DE
:103C50001846FFF70BFF38613B68FA8A1A803B6908
:103C6000002B2ED0FB791846FFF76AFF0346FB8135
:103C7000BB799BB2FA899A4223D9BB795B003A6936
:103C800013441A88BB8A13449AB27B799BB21344BB
:103C90009AB23B681A80BB795A1CFB899A4210DAA7
:103CA000BB7901335B003A6913441A88BB8A134419
:103CB000FB8206E0BB799AB2BB8A13449AB23B6896
:103CC0001A803B681B88FA8A9A4201D9002300E0D7
:103CD000024B18461837BD4680BD00BF000E0204D7
:103CE00080B584B000AF7860084611461A46034696
:103CF000FB700B46BB7013467B7007F108037A78A4
:103D0000B978F878FFF774FFF860FB68002B19D1D9
:103D10003B89DB089BB2FB723B89DBB203F00703F4
:103D2000BB72FB7A7A6813441B781946BB7A01226E
:103D300002FA03F30B40002B14BF01230023DAB275
:103D4000BB691A70FB6818461037BD4680BD80B548
:103D500084B000AF7860084611461A460346FB70EF
:103D60000B46BB7013467B7007F108037A78B9786D
:103D7000F878FFF73DFFF860FB68002B19D13B890D
:103D8000DB089BB2FB723B89DBB203F00703BB721B
:103D9000FB7A7A6813441B785AB2BB7A012101FA84
:103DA00003F35BB2134359B2FB7A7A681344CAB285
:103DB0001A70FB6818461037BD4680BD80B584B0C8
:103DC00000AF7860084611461A460346FB700B4662
:103DD000BB7013467B7007F108037A78B978F878DE
:103DE000FFF706FFF860FB68002B1BD13B89DB085F
:103DF0009BB2FB723B89DBB203F00703BB72FB7A19
:103E00007A6813441B785AB2BB7A012101FA03F392
:103E10005BB2DB435BB2134059B2FB7A7A6813445E
:103E2000CAB21A70FB6818461037BD4680BD80B410
:103E300000AF00231846BD465DF8047B70470000C4
:103E400080B588B002AF786011F097FD38617B686B
:103E500019787B685A787B68987807F10F0300938C
:103E600003461048FFF73CFF78617B69002B04D1C3
:103E7000FB7B002B01D00C4B7B617B69002B09D1B4
:103E80007B6819787B685A787B689B780548FFF7D0
:103E90005EFF7861386911F074FD7B691846183748
:103EA000BD4680BD702D0008010E020480B584B0AF
:103EB00000AF786011F061FDF8607B6819787B686D
:103EC0005A787B689B780848FFF778FFB860BB6832
:103ED000002B01D0FFF796FDF86811F052FD00BFEE
:103EE0001037BD4680BD00BF702D000880B485B07E
:103EF00000AF78607B680E2B07D8094B1B689A6966
:103F00007B68DB011344FB6003E0054B1B689B6986
:103F1000FB60FB6818461437BD465DF8047B7047AC
:103F20007C2E000880B588B002AF78600B46FB702D
:103F30007B689B78FB75FB7DDB08DBB21846FFF7DF
:103F4000D5FF38617B68DB78FB73FB7D03F00701ED
:103F5000FA78FB7B00930123386902F0D1F8FB78F3
:103F60000A2B02D00B2B09D011E0FB7D03F00703D5
:103F700001221946386902F032FA08E0FB7D03F0AD
:103F8000070300221946386902F029FA00BF00230E
:103F900018461837BD4680BD80B586B002AF0346CF
:103FA000FB71FB79DB08DBB21846FFF79FFFF86077
:103FB000FB7903F007010023009301230822F8682E
:103FC00002F09EF8002318461037BD4680BD80B52C
:103FD00084B000AF03463A60FB800B467B71FB88E0
:103FE0003B817B79FB6007F108033968184605F0CF
:103FF0003BFD034618461037BD4680BD80B400AF78
:1040000001BE00BFBD465DF8047B704780B485B03B
:1040100000AFF860B9601346FB71FB685A78BB6863
:104020001B789A420AD1FB79002B05D1FB689A785C
:10403000BB685B789A4201D1012300E0002303F0C2
:104040000103DBB218461437BD465DF8047B7047A8
:1040500080B483B000AFEFF305833B603B689BB255
:10406000103B9BB2FB80B7F9063018460C37BD46B3
:104070005DF8047B7047000080B584B000AF034654
:10408000FB800023FB73B7F90630123B1D2B57D87A
:1040900001A252F823F000BF354100104141001049
:1040A00041410010414100104141001041410010C8
:1040B00041410010414100104141001041410010B8
:1040C00041410010414100104141001041410010A8
:1040D0004141001041410010414100104141001098
:1040E00041410010414100104141001011410010B8
:1040F000174100101D4100104141001023410010E4
:10410000294100102F410010414100103B41001097
:104110000023FB7318E00123FB7315E00223FB73FC
:1041200012E00423FB730FE00523FB730CE006236E
:10413000FB7309E00823FB7306E00923FB7303E02C
:10414000FFF75CFFFF23FB73FB7B184600F006F8CC
:10415000034618461037BD4680BD00BF80B485B009
:1041600000AF0346FB71FF23FB730023BB730BE01F
:10417000BB7B0A4AD35CFA799A4202D1BB7BFB73C0
:1041800005E0BB7B0133BB73BB7B072BF0D9FB7B0B
:1041900018461437BD465DF8047B7047CC7A011091
:1041A00080B582B000AFFFF753FF0346FB80B7F93D
:1041B000063040F2FF32934201D100230AE0B7F902
:1041C00006301846FFF758FF03467B717B79034A98
:1041D00052F8233018460837BD4680BD982D000898
:1041E00080B586B000AFB9607A603B600346FB7370
:1041F00000237B6142E07B699B00BA6813449B7893
:10420000FA7B9A4237D13B68002B14D03B681B786D
:10421000172B10D17B699B00BA6813440022194602
:104220003868FFF7F3FE0346002B24D07B699B0020
:10423000BA68134427E017233B747B699B00BA6874
:1042400013441B787B747B699B00BA6813445B78CA
:10425000BB7407F110031846FFF7F2FD0346002B6D
:1042600009D107F110031846FFF720FE7B699B0078
:10427000BA68134407E07B6901337B617A697B6824
:104280009A42B8D3002318461837BD4680BD80B582
:1042900088B000AF0346B9607A60FB730023FB610E
:1042A0000023BB6131E0BB699B00BA6813449B7873
:1042B000FA7B9A4226D117233B75BB699B00BA68EB
:1042C00013441B787B75BB699B00BA6813445B7809
:1042D000BB7507F114031846FFF7B2FD0346002B28
:1042E00010D107F114031846FFF7E0FDBB699B00EE
:1042F000BA6813441B781A46012393401A46FB6997
:104300001343FB61BB690133BB61BA697B689A42A5
:10431000C9D3FB6918462037BD4680BD80B400AFC5
:10432000034B1B781846BD465DF8047B704700BF01
:10433000D82D000880B584B000AF0346FB710B4652
:10434000BB7113467B71FB79124A52F82330FB6034
:10435000FB79114A52F82330BB60FB68002B02D076
:10436000BB68002B01D1012300E0002303F001030F
:10437000DBB2002B07D17A79B979BB68F868984726
:104380000346002B01D0012300E00023184610371C
:10439000BD4680BD982D0008B82D000880B584B0BA
:1043A00000AF03463A60FB710B46BB710123FB7300
:1043B000BB79184601F0C2FB03463B730023BB7375
:1043C00024E03A7BF979BB7B1846FFF7B3FF03463D
:1043D000FB73FB7B83F00103DBB2002B13D0BB79B3
:1043E000012B10D100237B7308E0F9797B7B02223B
:1043F0001846FFF79FFF7B7B01337B737A7BBB7B88
:104400009A42F2D305E0BB7B0133BB73BB7B072B26
:10441000D7D9BB79022B02D0BB79082B03D1094B2A
:1044200000221A7008E0BB79012B05D1FB7B002B21
:1044300002D0044B01221A70FB7B18461037BD4690
:1044400080BD00BFD82D000880B586B000AF034600
:10445000B9607A60FB73FB7B1846FFF77FFE03466B
:10446000BB74BB7C1C49BA6841F82320BB7C1B4948
:104470007A6841F8232000237B610023FB740EE05F
:10448000FB7C154A52F82330002B05D07B69012BA9
:104490001ED07B6901337B61FB7C0133FB74FB7CA9
:1044A000072BEDD97B69002B08D1BB68002B01D00D
:1044B000FFF7A4FD0A4800F031FA0AE07B69012BFE
:1044C00007D1BB68002B04D0054800F013FA00E0C8
:1044D00000BF1837BD4680BD982D0008B82D0008D4
:1044E0005424000880B400AF01BE00BFBD465DF893
:1044F000047B704780B584B000AFF860B9601146A6
:104500001A460B46FB711346BB7132E0FB681B6811
:10451000002B2BD0FB681A79FB791340DBB2FA79B8
:104520009A4223D1FB685A79BB791340DBB2BA793E
:104530009A421BD0FB681B68FA689268B979F879CF
:1045400098470346002B02D1BB79012B01D00123F0
:1045500000E0002303F00103DAB2BB681A70BB6805
:104560001B7883F00103DBB2002B08D1FB68DB680A
:10457000FB60FB6840F289729342C7D100E000BF44
:10458000FB6818461037BD4680BD80B584B000AFCB
:10459000F860B9601346FB711BE0FB681B68002BD9
:1045A00014D0FB681A79FB791340DBB2FA799A428E
:1045B0000CD1FB685B7903F00203002B06D1FB688A
:1045C0001B68FA689268F87902219847FB68DB68F3
:1045D000FB60FA68BB689A42DFD100BF00BF1037AA
:1045E000BD4680BD80B588B000AF03460A46FB716A
:1045F0001346BB71FB79184601F0CCFA0346FB75F4
:104600000123FB72FB7D022B05D0FB7D082B02D022
:10461000FB7D102B06D1214B1B68FB61204B1B68D7
:10462000BB6105E01D4B1B68BB611D4B1B68FB613B
:10463000FB7DBA7907F10B01F869FFF75BFF386181
:10464000FB7A002B08D0FB7DBA7907F10B01B86922
:10465000FFF750FF034600E0BB69FB60FB7A83F085
:104660000103DBB2002B0ED0FB7D012B0BD1BB79FC
:104670001A46F968B869FFF788FFBB791A463969A5
:10468000F869FFF782FFFB7A002B01D0002300E0DE
:10469000044B18462037BD4680BD00BF6824000883
:1046A00064240008FF00420080B584B000AF0346D8
:1046B0000A46FB711346BB71BA79FB79114618465D
:1046C000FFF790FFF860FB79042B1CD1174B1B6898
:1046D00003F00103002B05D0154B1B78002B01D0F4
:1046E000012300E0002303F00103DAB2114B1A703A
:1046F000104B1B78002B13D00C4B1B680B4A23F07C
:10470000010313600CE0FB79082B09D1094B1B78DE
:10471000002B05D0054B1B68044A43F001031360CE
:10472000FB6818461037BD4680BD00BF10E000E0B2
:10473000E12D0008E02D000880B582B000AF786060
:104740000B46FB70FB7801211846FFF7ADFF0346CF
:1047500018460837BD4680BD80B582B000AF78608E
:104760000B46FB70FB78012B05D1084B1B88002BF7
:1047700001D0074B05E0FB7802211846FFF794FFB4
:10478000034618460837BD4680BD00BFDA2D000835
:10479000FF00420080B582B000AF78600B46FB702E
:1047A000FB7804211846FFF71DFF0346184608371B
:1047B000BD4680BD80B584B000AF78600B46FB700D
:1047C000FB7808211846FFF70DFFF860FB78082BEF
:1047D0000CD1002004F07CFF0346074AA2FB032310
:1047E0009B0CBB60B968002005F0C0FAFB68184656
:1047F0001037BD4680BD00BF83DE1B4380B584B04B
:1048000000AF78600B46FB70FB7810211846FFF76D
:10481000E9FEF860FB78042B0CD1002004F058FF6F
:104820000346074AA2FB03239B0CBB60B968012027
:1048300005F09CFAFB6818461037BD4680BD00BFE6
:1048400083DE1B4380B483B000AF78607B68DB6895
:10485000002B14BF01230023DBB218460C37BD46E2
:104860005DF8047B704780B584B000AF7860396034
:1048700011F083F8F8603868FFF7E4FF034683F02F
:104880000103DBB2002B06D07B681A683B68DA6054
:104890007B683A681A60F86811F073F800BF103747
:1048A000BD4680BD80B584B000AF7860396011F03E
:1048B00064F8F86010E07B681B683A689A4207D198
:1048C0003B68DA687B681A603B680022DA6009E0BE
:1048D0007B681B680C337B607B681B6840F28972C5
:1048E0009342E8D1F86811F04CF800BF1037BD468C
:1048F00080BD000080B582B000AF78607B68002B7F
:1049000001D1FFF7EFFD79680348FFF7ACFF00BF67
:104910000837BD4680BD00BF6824000880B582B05E
:1049200000AF78607B68002B01D1FFF7DBFD796871
:104930000348FFF7B7FF00BF0837BD4680BD00BF83
:104940006824000880B584B000AFF8600B467A6038
:10495000FB721C220849F86811F04EF9FB687A686E
:104960001A60FB68FA7A1A71F86805F0A1FC034630
:1049700018461037BD4680BD047B011080B582B05B
:1049800000AF05F0FBFF0346002B01D005F00EFD44
:1049900000237B601E4A00211E48FFF7D3FF034619
:1049A00083F00103DBB2002B2BD11B4A01211B48F2
:1049B000FFF7C8FF034683F00103DBB2002B20D1D1
:1049C000174A02211748FFF7BDFF034683F0010392
:1049D000DBB2002B15D1144A03211448FFF7B2FFB4
:1049E000034683F00103DBB2002B0AD1104A0421F5
:1049F0001048FFF7A7FF034683F00103DBB2002B4B
:104A000001D00D4B7B607B6818460837BD4680BDE2
:104A100039470010EC2D000859470010082E0008F7
:104A200095470010242E0008B54700105C2E0008A2
:104A3000FD470010402E0008011A020480B582B024
:104A400000AF03463960FB71FB79002B01D0FFF703
:104A500049FDFB7903493A6841F8232000BF083734
:104A6000BD4680BDDC2D000880B483B000AF034696
:104A7000FB80B7F90630002B0BDBFB8803F01F022D
:104A80000749B7F906305B09012000FA02F241F844
:104A9000232000BF0C37BD465DF8047B704700BF84
:104AA00000E100E080B483B000AF0346FB80B7F9BB
:104AB0000630002B12DBFB8803F01F020A49B7F90E
:104AC00006305B09012000FA02F2203341F823206E
:104AD000BFF34F8F00BFBFF36F8F00BF00BF0C3716
:104AE000BD465DF8047B704700E100E080B400AF94
:104AF00001BE00BFBD465DF8047B704780B485B041
:104B000000AF78607B680E2B07D8094B1B689A6949
:104B10007B68DB011344FB6003E0054B1B689B696A
:104B2000FB60FB6818461437BD465DF8047B704790
:104B30007C2E000880B483B000AF78607B68D3F827
:104B40000833C3F3080318460C37BD465DF8047BF1
:104B5000704780B483B000AF78607B68D3F80832C8
:104B6000C3F3080318460C37BD465DF8047B704755
:104B700080B483B000AF78607B68D3F80832DB0B79
:104B800003F0010318460C37BD465DF8047B7047FF
:104B900090B583B000AF78607868FFF7DAFF04461D
:104BA0007868FFF7E5FF03462344002B0CBF012381
:104BB0000023DBB218460C37BD4690BD80B483B0ED
:104BC00000AF78607B68D3F8CC3F18460C37BD4601
:104BD0005DF8047B704780B582B000AF78603960C3
:104BE0003B6823F4366323F00D03002B01D0FFF75D
:104BF0007DFF7B683A68C3F8C02F7B68D3F8C03F5D
:104C000000BF0837BD4680BD80B582B000AF786078
:104C100039603B6823F4EE6323F00303002B01D0DB
:104C2000FFF764FF7B683A68C3F8882F00BF083736
:104C3000BD4680BD80B483B000AF78607B68D3F898
:104C4000883F18460C37BD465DF8047B704780B43A
:104C500083B000AF78607B68D3F88C3F18460C3780
:104C6000BD465DF8047B704780B582B000AF7860C8
:104C700039603B6823F4EE6323F00303002B01D07B
:104C8000FFF734FF7B683A68C3F8802F7B68D3F85E
:104C9000803F00BF0837BD4680BD80B483B000AF01
:104CA00078607B681B6843F000427B681A6000BF35
:104CB0000C37BD465DF8047B704780B485B000AF0B
:104CC00078607B68FB60FB68D3F840331846143784
:104CD000BD465DF8047B704780B582B000AF786058
:104CE0007868FFF727FF034618460837BD4680BDA2
:104CF00080B582B000AF78607868FFF749FF03465F
:104D000018460837BD4680BD80B582B000AF7860D8
:104D100003F004FC034618460837BD4680BD80B545
:104D200084B000AFF860B9607A60F868FFF7ECFF14
:104D300002467B689A40BB685B081A44BB68B2FBBA
:104D4000F3F318461037BD4680BD80B582B000AF82
:104D500003463960FB713B681B7803F00303D9B24B
:104D60003B685B781A46FB79184603F041FA034624
:104D700018460837BD4680BD80B584B000AF0346F5
:104D8000FB80FB88FB81B7F90E301846FFF76CFEFD
:104D900000BF1037BD4680BD80B582B000AF03466E
:104DA000FB80B7F906301846FFF77CFE00BF0837D6
:104DB000BD4680BD80B582B000AF0346FB80B7F929
:104DC00006301846FFF7E8FF00BF0837BD4680BD34
:104DD00080B485B000AF78607B68FB73FB7B1846BE
:104DE0001437BD465DF8047B7047000090B585B070
:104DF00000AF4D4B1B68FB60FFF7D2F903464A4AF0
:104E00001360494B1B68002B00F08A80464B1B68DF
:104E1000BB60BB681B681846FFF719FF7860BB686A
:104E20001B681846FFF7CAFE3860BB681A68BB6883
:104E300018331946104602F065FE7B6803F0200324
:104E4000002B0DD0BB681B6820211846FFF70CFF14
:104E5000BB68DB6C002B03D0BB68DB6C2020984761
:104E60007B6803F04003002B0DD0BB681B6840211A
:104E70001846FFF7F9FEBB68DB6C002B03D0BB685C
:104E8000DB6C202098477B6803F00103002B08D0DF
:104E9000BB68DB6C002B04D0BB68DB6C4FF480700C
:104EA00098477B6803F40073002B14D0BB681B6821
:104EB0004FF400711846FFF7D7FEBB681C68BB684B
:104EC0001B681846FFF7B6FE034643F40073194605
:104ED0002046FFF799FE3B6803F04003002B0DD0FE
:104EE000BB681B6840211846FFF775FEBB68DB6C8A
:104EF000002B03D0BB68DB6C102098473B6803F0A5
:104F00000103002B08D0BB68DB6C002B04D0BB680E
:104F1000DB6C4FF400709847034AFB68136000E0B5
:104F200000BF1437BD4690BD782E000880B588B00C
:104F300000AF78600B46FB701346BB707B68BB61AB
:104F40000023FB77BB691B7AFF2B08D0BB691B7A58
:104F5000DB08DBB21846FFF7D1FD034600E0002373
:104F60007B61BB699B7AFF2B0CD0BB691B7B002B41
:104F700008D0BB699B7ADB08DBB21846FFF7BEFDA1
:104F8000034600E000233B61BB691B7A03F0070383
:104F9000FB73BB699B7A03F00703BB73BB78013BD0
:104FA000072B00F2998001A252F823F0CD4F001098
:104FB00097500010D9500010D3500010D950001055
:104FC000D9500010D950001097500010BB691A68D2
:104FD000BB6918331946104602F087FD034603F0FB
:104FE0000103002B7BD1BB691A68BB6918331946D2
:104FF000104602F06DFD034603F00103002B6ED155
:10500000BB691B681846FFF773FE0346002B66D08A
:10501000BB691B681846FFF75FFE0346002B5ED195
:105020007B69002B14D0FB7B1946786901F082F96B
:1050300003461A46BB6983F89820FB7B19467869BA
:1050400001F0F0F9FB7B00221946786901F016F9AE
:105050003B69002B14D0BB7B1946386901F06AF913
:1050600003461A46BB6983F89920BB7B1946386909
:1050700001F0D8F9BB7B00221946386901F0FEF82F
:10508000BB691A68BB6918331946104602F07EFCEA
:105090000123FB7723E00123FB77BB691B681846DC
:1050A000FFF7FBFD7B69002B07D0F97BBB6993F809
:1050B00098301A46786901F0E1F83B69002B10D06E
:1050C000B97BBB6993F899301A46386901F0D6F874
:1050D00007E00123FB7705E0FFF708FD02E000BFD2
:1050E00000E000BFFB7F18462037BD4680BD00BFF3
:1050F00080B483B000AF0346FB71FB79022B0AD06A
:10510000022B0ADC002B02D0012B02D005E0002389
:1051100004E0022302E0032300E0002318460C37DA
:10512000BD465DF8047B704780B582B000AF034692
:10513000FB71FB79013B032B12D801A252F823F03B
:105140005151001055510010595100105D5100107F
:10515000022308E0042306E0062304E0082302E01B
:10516000FFF7C4FC022318460837BD4680BD00BFC8
:1051700080B584B000AFF860B9607A60F868FFF776
:10518000C3FD0146BB687A6802FB03F3B1FBF3F38E
:1051900018461037BD4680BD80B483B000AF78603C
:1051A00039603A687B689A4209D93A687B68D31AB1
:1051B000642203FB02F27B68B2FBF3F308E07A6837
:1051C0003B68D31A642203FB02F27B68B2FBF3F361
:1051D00018460C37BD465DF8047B704780B586B035
:1051E00000AF786039600823FB75FF23BB75082387
:1051F0007B7521E07B7D3A6802FB03F300221946B0
:105200007868FFF78CFD38617B7D1A4639697868CC
:10521000FFF7AEFF034619463868FFF7BDFF0346A8
:10522000FB73FA7BBB7D9A4203D2FB7BBB757B7D14
:10523000FB757B7D01337B757B7D102BDAD9FB7D84
:1052400018461837BD4680BD80B58CB000AF786079
:10525000084611461A460346FB700B46BB701346C0
:105260007B707B681E221A717B6800225A737B68F0
:10527000FF22DA717B68FF221A727B68FF225A7262
:105280007B68FF229A72FB78FF2B03D197F83830A6
:10529000FF2B0BD1BB78FF2B02D17B78FF2B05D1E5
:1052A000FB78FF2B04D1BB78FF2B01D19B4B30E166
:1052B00010F063FB38629A4B1B68BB62FB78FF2BD4
:1052C00009D0FB780B2297491846FEF7E0FF02460B
:1052D000BB6A1340BB62BB78FF2B09D0BB780B22A3
:1052E00091491846FEF7D3FF0246BB6A1340BB62E2
:1052F0007B78FF2B09D07B780A228C491846FEF771
:10530000C6FF0246BB6A1340BB6297F83830FF2BDA
:105310000AD097F838300A2285491846FEF7B7FFB9
:105320000246BB6A1340BB62BB6A002B04D1386AD9
:1053300010F027FB794BECE0002387F8273004E0DE
:1053400097F82730013387F8273097F82730BA6A63
:1053500022FA03F303F00103002BF1D017233B7370
:1053600097F827307B730023BB7307F10C03F878A1
:105370000B226C49FEF734FFF86107F10C03B87893
:105380000B226949FEF72CFFB86107F10C0378780E
:105390000A226649FEF724FF786107F10C0397F8AB
:1053A00038000A226249FEF71BFF3861FB78FF2BA9
:1053B00002D0FB69002B12D0BB78FF2B02D0BB6957
:1053C000002B0CD07B78FF2B02D07B69002B06D002
:1053D00097F83830FF2B04D03B69002B01D1FFF741
:1053E00085FB07F10C031846FEF72AFDF862386AC0
:1053F00010F0C7FAFB6A002B01D0FB6A89E07B68DA
:10540000043307F10C021268114619800233120CA2
:105410001A70FB6A002B0DD1FB78FF2B0AD00621F6
:10542000F86900F035FBF862FB6A002B02D17B685B
:10543000FA781A72FB6A002B0DD1BB78FF2B0AD0C9
:105440000821B86900F024FBF862FB6A002B02D146
:105450007B68BA78DA71FB6A002B10D17B69002B6C
:105460000DD00821786900F013FBF862FB6A002B6D
:1054700005D17B680122DA727B687A785A72FB6AFE
:10548000002B11D13B69002B0ED00621386900F0AA
:10549000FFFAF862FB6A002B06D17B6801221A73BF
:1054A0007B6897F838209A72FB6A002B1FD1FB6B40
:1054B000002B12D17B6803F110007B68191D0123BA
:1054C000012200F01DFCF862FB6A002B0CBF0123D7
:1054D0000023DAB27B685A7309E07B6800225A73B2
:1054E0007B68FA6B103392E8030083E80300FB6AE1
:1054F000002B0DD17B685B791846FFF769FC0346EA
:105500001A467B68103319461046FFF71EFCF862F6
:10551000FB6A18463037BD4680BD00BF001F02043D
:10552000C87A01106079011034790110E478011013
:105530000C79011080B584B000AF78607B685B792E
:105540001846FEF70BFE0346FB73FB7B1F4A52F81F
:1055500023207B681A607B6818687B6803F154011C
:105560007B6818331A4601F07BFFB860BB68002BDC
:1055700027D17B680022C3F89C207B680022C3F8F7
:10558000A0207B680022C3F89420FB7B104A32F9EC
:105590001330104A03211846FEF719FDFB7B0C4A15
:1055A00032F913301846FFF7E7FB7B685B790A4A4C
:1055B00079681846FEF748FF7B681B681846FFF7B6
:1055C0006CFBBB6818461037BD4680BDD47A01100D
:1055D000F47A0110ED4D00102D4F0010B0B586B0DB
:1055E00002AF7860084611461A460346FB700B4628
:1055F000BB7013467B707B68002B01D1FFF776FAF6
:10560000A8220021786810F091FB7B68002283F8C3
:10561000A4207878BA78F9787B6A019397F82030DB
:10562000009303467868FFF70FFEF860FB68002BD5
:1056300033D17B682D4A03F1540415460FCD0FC4B6
:105640000FCD0FC40FCD0FC495E80F0084E80F00F5
:105650007B68DA7A7B6883F87420BB6A002B18D0E9
:10566000BB6A1A687B68DA65BB6A5B68DBB218469E
:10567000FFF75AFD03461A467B6883F86120BB6A30
:105680001B7A1846FFF734FD03461A467B6883F8F9
:1056900062207868FFF74EFFF860FB68002B19D195
:1056A000BB6A002B0BD0BB6ADB68002B07D0BB6A40
:1056B000D968BB6A1B691A46786800F06DF97B6887
:1056C0005B7B002B06D000224FF4E131786800F0BC
:1056D00083F8F860FB68002B02D0786800F008F8C7
:1056E000FB6818461037BD46B0BD00BF207B0110D7
:1056F00080B584B000AF78607B68002B01D1FFF7E4
:10570000F5F97B681B68002B0FD07B681A687B68F3
:1057100018331946104602F039F97B681B681846A1
:1057200002F0EAF87B6800221A607B681B791E2B66
:1057300027D07B685B791846FEF710FD0346FB73A4
:10574000FB7B244A32F81330BB81B7F90C30184682
:10575000FFF730FB7B685B79002200211846FEF7DB
:1057600073FE7B6893F8A43083F00103DBB2002B57
:1057700004D07B6804331846FEF798FB7B681E2232
:105780001A717B6893F8A43083F00103DBB2002B1D
:105790001CD07B680733184600F01BF97B68083380
:1057A000184600F016F97B680A33184600F011F924
:1057B0007B680933184600F00CF97B685B7B002B93
:1057C00004D07B6810331846FDF705FE00BF103784
:1057D000BD4680BDF47A011080B58AB000AFF86094
:1057E000B9607A60FB685B7B002B00F08D80FB6802
:1057F0001B680021184602F0C9F8FB68103300222C
:1058000000211846FDF78DFD78627B6A002B06D0DB
:10581000FB681B681846FFF740FA7B6A77E0FB6875
:105820000433B9681846FFF7D9FC034687F82330DC
:1058300097F82320FB689A65FB68181D97F82330BA
:10584000BA6802FB03F300221946FFF768FAF86111
:10585000FB681033F9691846FDF794FD78627B6A9E
:10586000002B0DD0FB681033002201211846FDF7F4
:1058700058FDFB681B681846FFF70FFA7B6A46E085
:10588000FB68043397F82320F9691846FFF770FC8A
:10589000B8617B68002B02D07B68BA691A60B9696D
:1058A000B868FFF779FC78617B690A2B01D91A4B3C
:1058B0007B62FB681033002201211846FDF731FDA1
:1058C0007862FB6893F87030002B02D04FF480327E
:1058D00000E00022FB68DB6D082B02D84FF4006368
:1058E00000E000231A4397F82330013B03F00F0335
:1058F0001A43FB681B6842F000721A60FB681B6861
:105900001846FFF7CAF901E0044B7B627B6A184630
:105910002837BD4680BD00BF031F0104061F0204D7
:1059200080B586B000AFF860B9607A60FEF7F6FC2B
:105930000346002B01D0164B26E0FB681B68184677
:10594000FFF7BBF978617B683B6114E07B68002B53
:105950000BD03B69002B06D0012004F0FDF83B6919
:10596000013B3B6101E00B4B0EE0FB681B681846F6
:10597000FFF7A3F978617B69B3F1FF3FE6D07B695C
:10598000DAB2BB681A70002318461837BD4680BDCE
:10599000031A0204021F020480B584B000AFF8604D
:1059A000B9607A60FB68002B01D1FFF79FF8BB68F4
:1059B000002B01D1FFF79AF8FB681868FB681833D1
:1059C0007A68B96802F002F8002318461037BD461D
:1059D00080BD80B582B000AF78607B681B78FF2BFC
:1059E00007D07B681B78184600F082F87B68FF229E
:1059F0001A7000BF0837BD4680BD80B400AF01BE3D
:105A000000BFBD465DF8047B704780B485B000AF31
:105A10000346FB710B233B72FB79DB08DBB27B7225
:105A2000FB7903F00703DBB2BB7207F10C0307F14C
:105A300008021268114619800233120C1A700023F2
:105A40003A7B62F307037A7B62F30F23BA7B62F33C
:105A5000174318461437BD465DF8047B704780B580
:105A600084B000AF78600B46FB707B68002B01D1DF
:105A7000FFF7C3FFFDF7E4FBF860FB78FA6819460F
:105A80007868FDF7E7FB034618461037BD4680BD32
:105A900080B584B000AF78600B46FB707B689B7864
:105AA0001846FFF7B2FF03461A463A72C3F30722BD
:105AB0007A72C3F30743BB7207F108031846FEF777
:105AC000BFF9F860FB68002B0DD1FB7819467868A8
:105AD000FEF728FAF860FB68002B04D007F10803F2
:105AE0001846FEF7E3F9FB6818461037BD4680BD3F
:105AF00080B584B000AF0346FB71FB791846FEF712
:105B00004BFAF860FB68002B01D0FFF776FFFB79BA
:105B10001846FFF77AFF03461A463A72C3F3072284
:105B20007A72C3F30743BB7207F108031846FEF706
:105B3000BDF900BF1037BD4680BD000080B582B002
:105B400000AF0346FB71FB79013B072B1AD801A27A
:105B500052F823F0755B0010795B0010855B001034
:105B60007D5B0010855B0010855B0010855B00107D
:105B7000815B0010012308E0022306E0042304E017
:105B8000082302E0FFF739FF012318460837BD4616
:105B900080BD00BF80B582B000AF0346FB71FB79CA
:105BA000013B072B1AD801A252F823F0CD5B00105D
:105BB000D15B0010DD5B0010D55B0010DD5B0010D9
:105BC000DD5B0010DD5B0010D95B0010012308E0F5
:105BD000022306E0042304E0082302E0FFF70DFFA0
:105BE000012318460837BD4680BD00BF80B586B08A
:105BF00000AF7860084611461A460346FB700B4614
:105C0000BB7013467B70184B7B610023FB74002331
:105C1000FB6020E0154AFB6813441B78BA789A426F
:105C200001D10123FB74FB7C002B11D00F4AFB68D0
:105C300013441B7819467868FFF711FF78617B6978
:105C4000002B0BD07B7883F00103DBB2002B05D156
:105C5000FB680133FB60FB68032BDBD97B691846CB
:105C60001837BD4680BD00BF020E0204607B0110E4
:105C700080B483B000AF0346FB71FB79122B37D899
:105C800001A252F823F000BFD55C0010D95C0010CF
:105C9000DD5C0010E15C0010F15C0010F15C0010B4
:105CA000F15C0010F15C0010F15C0010F15C001080
:105CB000F15C0010F15C0010F15C0010E95C001078
:105CC000F15C0010E55C0010F15C0010F15C00106C
:105CD000ED5C001008230CE010230AE0042308E028
:105CE000012306E0022304E0062302E0062300E08D
:105CF000012318460C37BD465DF8047B704700BF92
:105D000080B586B000AFF860B96011461A460B4600
:105D1000FB711346BB71BB68002B01D1FFF76DFE11
:105D2000BB681B78053B182B69D801A252F823F0F9
:105D3000F75D0010FF5D0010FF5D0010FF5D0010BB
:105D4000FF5D0010FF5D0010FF5D0010955D00100D
:105D5000FF5D0010FF5D0010FF5D0010FF5D001093
:105D6000FF5D0010FF5D0010FF5D0010955D0010ED
:105D7000A75D0010FF5D0010FF5D0010CB5D0010FF
:105D8000FF5D0010FF5D0010FF5D0010FF5D001063
:105D9000B95D0010234A07F11003083292E80300AE
:105DA00083E8030033E01F4A07F11003103292E842
:105DB000030083E803002AE01A4A07F110031832AF
:105DC00092E8030083E8030021E0BB685B78002BC6
:105DD00008D1144A07F11003203292E8030083E847
:105DE000030014E00F4A07F11003103292E8030099
:105DF00083E803000BE0FFF700FE0B4B0EE0BB79DE
:105E0000FA790021F868FFF7F1FE034606E007F192
:105E100010031946F868FDF757FA03461846183775
:105E2000BD4680BDEC7901100202020480B483B04B
:105E300000AF7860044A7B68136000BF0C37BD4632
:105E40005DF8047B704700BF7C2E000880B400AF73
:105E500001BE00BFBD465DF8047B704780B588B0C9
:105E600000AFF860B9607A609B4BFB61FB68002B68
:105E700000F041817B68002B00F03D81BB68072B5F
:105E800001D9FFF7E3FF7B681B68012B01D9FFF7FE
:105E9000DDFF7B685B6823F00F03002B07D17B6875
:105EA0005B68012B03D07B685B68092B01D1FFF78E
:105EB000CDFF7B681B7A23F01F03002B01D0FFF777
:105EC000C5FF7B68DB68002B0DD07B68DB68012B8E
:105ED00009D07B68DB68022B05D07B68DB68032B6D
:105EE00001D0FFF7B3FF7B681B69012B01D9FFF7D6
:105EF000ADFF7B685B69012B01D9FFF7A7FF7B68CA
:105F00001B6A012B01D9FFF7A1FF7B685B6A012B9C
:105F100001D9FFF79BFF7B689B6A012B01D9FFF733
:105F200095FF7B68DB6A002B0DD07B68DB6A012B59
:105F300009D07B68DB6A022B05D07B68DB6A032B08
:105F400001D0FFF783FF7B681B6B002B1DD07B68A4
:105F50001B6B012B19D07B681B6B022B15D07B6848
:105F60001B6B032B11D07B681B6B042B0DD07B6844
:105F70001B6B052B09D07B681B6B062B05D07B6840
:105F80001B6B072B01D0FFF761FF7B68DB69002BE0
:105F90000DD07B68DB69012B09D07B68DB69022BA4
:105FA00005D07B68DB69032B01D0FFF74FFF7B68CF
:105FB0009B69012B01D9FFF749FF0122BB689A4079
:105FC000BB685B001033032101FA03F31343BB6189
:105FD000424B1B6893F883301A46FB6813441A68D7
:105FE000BB69DB4313407B617B689B6903F0010263
:105FF000BB689A407B691A437B68DB6903F0030145
:10600000BB685B00103301FA03F313433B61334B6E
:106010001B6893F883301A46FB6813441A463B69A1
:1060200013607B681B7A1A46B968F86800F026F995
:106030007B685B681A46B968F86800F009FA7B6803
:10604000DB681A46B968F86800F0D8FA7B681B6903
:106050001A46B968F86800F091FA7B685B691A46DD
:10606000B968F86800F038FA1C4B1B6893F8843064
:106070001A46FB6813441B6823F0FF037B617B68AF
:106080001B6A03F001027B685B6A5B0003F002039A
:106090001A437B689B6A9B0003F004031A437B68E6
:1060A000DB6ADB0003F018031A437B681B6B5B01A0
:1060B000DBB21A43BB689B0003F47E7302FA03F35E
:1060C0007A6913433B61054B1B6893F884301A4689
:1060D000FB6813441A4603E001005A007C2E0008B6
:1060E0003B6913607B681B681A46B968F86800F062
:1060F00076F90023FB61FB6918462037BD4680BD59
:1061000080B586B000AFF860B9607A603B60BB686C
:10611000072B01D9FFF79AFE7B6823F00F03002BB2
:1061200005D17B68012B02D07B68092B01D1FFF7D9
:106130008DFE3B68012B01D9FFF788FE97F82030D0
:1061400023F01F03002B01D0FFF780FE97F82030CB
:106150001A46B968F86800F091F8FB681A680121DE
:10616000BB6801FA03F3DB4313407B613B6803F038
:106170000102BB689A407B691A43FB681A60124BA4
:106180001B6893F881301A46FB6813441A68BB6891
:106190009B000F2101FA03F3DB4313407B617B6813
:1061A00003F00F02BB689B009A40074B1B6893F8F3
:1061B00081301946FB680B4419467B6913430B6019
:1061C00000BF1837BD4680BD7C2E000880B485B066
:1061D00000AF78607A68284B1B689B69D31ADB098B
:1061E000FB60254B1B685A69FB681B011344BB60AD
:1061F0007B6800221A60204B1B6893F881301A4696
:106200007B6813441A46002313601B4B1B6893F8EA
:1062100082301A467B6813441A4600231360164BDB
:106220001B6893F883301A467B6813441A46002390
:106230001360114B1B6893F880301A467B68134437
:106240001A46002313607B6800229A610A4B1B6880
:1062500093F884301A467B6813441A46002313606F
:10626000BB6800221A60BB6800225A6000BF143766
:10627000BD465DF8047B70477C2E000880B588B071
:1062800000AFF860B9601346FB71BB68072B01D9FA
:10629000FFF7DCFDFB7923F01F03002B01D0FFF794
:1062A000D5FDFA68224B1B689B69D31ADB09FB6199
:1062B0001F4B1B685A69FB691B011344BB61BB6818
:1062C000032B17D8BB691A68BB68DB001F2101FAD2
:1062D00003F3DB4313407B61FB7903F01F02BB68D0
:1062E000DB0002FA03F37A6913433B61BB693A6945
:1062F0001A6019E0BB68043BBB60BB695A68BB68A5
:10630000DB001F2101FA03F3DB4313407B61FB79C0
:1063100003F01F02BB68DB0002FA03F37A69134340
:106320003B61BB693A695A6000BF2037BD4680BDFA
:106330007C2E000880B586B000AF786039603B687D
:10634000072B01D9FFF782FD7A68184B1B689B6900
:10635000D31ADB093B61154B1B685A693B691B016A
:106360001344FB603B68032B0BD8FB681B68BB60C6
:106370003B68DB00BA6822FA03F303F01F037B617A
:106380000DE03B68043B3B60FB685B68BB603B68BF
:10639000DB00BA6822FA03F303F01F037B617B6919
:1063A000DBB218461837BD4680BD00BF7C2E000802
:1063B00080B584B000AF786039603B68082B01D9A4
:1063C000FFF744FD7B681B69FB60FA683B6822FAB3
:1063D00003F303F0010318461037BD4680BD80B5B6
:1063E00086B000AFF860B9607A60BB68072B01D94E
:1063F000FFF72CFD7B68012B01D9FFF727FD012258
:10640000BB6802FA03F37B617B68002B03D1FB6856
:106410007A695A6002E0FB687A699A6000BF1837AF
:10642000BD4680BD80B584B000AF786039603B6800
:10643000072B01D9FFF70AFD01223B6802FA03F39B
:10644000FB607B68FA689A6000BF1037BD4680BD6C
:1064500080B588B000AFF860B9607A60BB68072B80
:1064600001D9FFF7F3FC7B6823F00F03002B05D164
:106470007B68012B02D07B68092B01D1FFF7E6FC7A
:10648000BB689B00FB61134B1B6893F881301A4675
:10649000FB6813441A680F21FB6901FA03F3DB431D
:1064A0001340BB617B6803F00F02FB6902FA03F340
:1064B000BA6913437B61074B1B6893F881301A4616
:1064C000FB6813441A467B69136000BF2037BD4642
:1064D00080BD00BF7C2E000880B586B000AFF8609C
:1064E000B9607A60BB68072B01D9FFF7AFFC7B6806
